{
  "contractName": "DAO",
  "abi": [
    {
      "inputs": [
        {
          "internalType": "uint256",
          "name": "contributionTime",
          "type": "uint256"
        },
        {
          "internalType": "uint256",
          "name": "_voteTime",
          "type": "uint256"
        },
        {
          "internalType": "uint256",
          "name": "_quorum",
          "type": "uint256"
        }
      ],
      "stateMutability": "nonpayable",
      "type": "constructor"
    },
    {
      "inputs": [],
      "name": "admin",
      "outputs": [
        {
          "internalType": "address",
          "name": "",
          "type": "address"
        }
      ],
      "stateMutability": "view",
      "type": "function",
      "constant": true
    },
    {
      "inputs": [],
      "name": "availableFunds",
      "outputs": [
        {
          "internalType": "uint256",
          "name": "",
          "type": "uint256"
        }
      ],
      "stateMutability": "view",
      "type": "function",
      "constant": true
    },
    {
      "inputs": [],
      "name": "contributionEnd",
      "outputs": [
        {
          "internalType": "uint256",
          "name": "",
          "type": "uint256"
        }
      ],
      "stateMutability": "view",
      "type": "function",
      "constant": true
    },
    {
      "inputs": [
        {
          "internalType": "address",
          "name": "",
          "type": "address"
        }
      ],
      "name": "investors",
      "outputs": [
        {
          "internalType": "bool",
          "name": "",
          "type": "bool"
        }
      ],
      "stateMutability": "view",
      "type": "function",
      "constant": true
    },
    {
      "inputs": [],
      "name": "nextProposalId",
      "outputs": [
        {
          "internalType": "uint256",
          "name": "",
          "type": "uint256"
        }
      ],
      "stateMutability": "view",
      "type": "function",
      "constant": true
    },
    {
      "inputs": [
        {
          "internalType": "uint256",
          "name": "",
          "type": "uint256"
        }
      ],
      "name": "proposals",
      "outputs": [
        {
          "internalType": "uint256",
          "name": "id",
          "type": "uint256"
        },
        {
          "internalType": "string",
          "name": "name",
          "type": "string"
        },
        {
          "internalType": "uint256",
          "name": "amount",
          "type": "uint256"
        },
        {
          "internalType": "address payable",
          "name": "recipient",
          "type": "address"
        },
        {
          "internalType": "uint256",
          "name": "votes",
          "type": "uint256"
        },
        {
          "internalType": "uint256",
          "name": "end",
          "type": "uint256"
        },
        {
          "internalType": "bool",
          "name": "executed",
          "type": "bool"
        }
      ],
      "stateMutability": "view",
      "type": "function",
      "constant": true
    },
    {
      "inputs": [],
      "name": "quorum",
      "outputs": [
        {
          "internalType": "uint256",
          "name": "",
          "type": "uint256"
        }
      ],
      "stateMutability": "view",
      "type": "function",
      "constant": true
    },
    {
      "inputs": [
        {
          "internalType": "address",
          "name": "",
          "type": "address"
        }
      ],
      "name": "shares",
      "outputs": [
        {
          "internalType": "uint256",
          "name": "",
          "type": "uint256"
        }
      ],
      "stateMutability": "view",
      "type": "function",
      "constant": true
    },
    {
      "inputs": [],
      "name": "totalShares",
      "outputs": [
        {
          "internalType": "uint256",
          "name": "",
          "type": "uint256"
        }
      ],
      "stateMutability": "view",
      "type": "function",
      "constant": true
    },
    {
      "inputs": [],
      "name": "voteTime",
      "outputs": [
        {
          "internalType": "uint256",
          "name": "",
          "type": "uint256"
        }
      ],
      "stateMutability": "view",
      "type": "function",
      "constant": true
    },
    {
      "inputs": [
        {
          "internalType": "address",
          "name": "",
          "type": "address"
        },
        {
          "internalType": "uint256",
          "name": "",
          "type": "uint256"
        }
      ],
      "name": "votes",
      "outputs": [
        {
          "internalType": "bool",
          "name": "",
          "type": "bool"
        }
      ],
      "stateMutability": "view",
      "type": "function",
      "constant": true
    },
    {
      "stateMutability": "payable",
      "type": "receive",
      "payable": true
    },
    {
      "inputs": [],
      "name": "contribute",
      "outputs": [],
      "stateMutability": "payable",
      "type": "function",
      "payable": true
    },
    {
      "inputs": [
        {
          "internalType": "uint256",
          "name": "amount",
          "type": "uint256"
        }
      ],
      "name": "redeemShare",
      "outputs": [],
      "stateMutability": "nonpayable",
      "type": "function"
    },
    {
      "inputs": [
        {
          "internalType": "uint256",
          "name": "amount",
          "type": "uint256"
        },
        {
          "internalType": "address payable",
          "name": "to",
          "type": "address"
        }
      ],
      "name": "transferShare",
      "outputs": [],
      "stateMutability": "nonpayable",
      "type": "function"
    },
    {
      "inputs": [
        {
          "internalType": "string",
          "name": "name",
          "type": "string"
        },
        {
          "internalType": "uint256",
          "name": "amount",
          "type": "uint256"
        },
        {
          "internalType": "address payable",
          "name": "recipient",
          "type": "address"
        }
      ],
      "name": "createProposal",
      "outputs": [],
      "stateMutability": "nonpayable",
      "type": "function"
    },
    {
      "inputs": [
        {
          "internalType": "uint256",
          "name": "proposalId",
          "type": "uint256"
        }
      ],
      "name": "vote",
      "outputs": [],
      "stateMutability": "nonpayable",
      "type": "function"
    },
    {
      "inputs": [
        {
          "internalType": "uint256",
          "name": "proposalId",
          "type": "uint256"
        }
      ],
      "name": "executeProposal",
      "outputs": [],
      "stateMutability": "nonpayable",
      "type": "function"
    },
    {
      "inputs": [
        {
          "internalType": "uint256",
          "name": "amount",
          "type": "uint256"
        },
        {
          "internalType": "address payable",
          "name": "to",
          "type": "address"
        }
      ],
      "name": "withdrawEther",
      "outputs": [],
      "stateMutability": "nonpayable",
      "type": "function"
    }
  ],
  "bytecode": "0x608060405234801561001057600080fd5b506040516119993803806119998339818101604052606081101561003357600080fd5b810190808051906020019092919080519060200190929190805190602001909291905050506000811180156100685750606481105b6100da576040517f08c379a00000000000000000000000000000000000000000000000000000000081526004018080602001828103825260208152602001807f71756f72756d206d757374206265206265747765656e203020616e642031303081525060200191505060405180910390fd5b824201600681905550816008819055508060098190555033600a60006101000a81548173ffffffffffffffffffffffffffffffffffffffff021916908373ffffffffffffffffffffffffffffffffffffffff160217905550505050611855806101446000396000f3fe60806040526004361061010d5760003560e01c80636f7bc9be11610095578063ce56c45411610064578063ce56c454146105cc578063ce7c2ac214610627578063d151b5161461068c578063d7bb99ba146106b7578063f851a440146106c157610124565b80636f7bc9be1461048e578063868643df146104f55780639f2524ee14610530578063bcf93dd6146105a157610124565b80631703a018116100dc5780631703a018146102f05780632ab09d141461031b5780633a98ef391461034657806346fcff4c146103715780636ac1e01f1461039c57610124565b80630121b93f14610129578063013cf08b14610164578063039383e61461025a5780630d61b519146102b557610124565b366101245734600560008282540192505081905550005b600080fd5b34801561013557600080fd5b506101626004803603602081101561014c57600080fd5b8101908080359060200190929190505050610702565b005b34801561017057600080fd5b5061019d6004803603602081101561018757600080fd5b81019080803590602001909291905050506109b2565b60405180888152602001806020018781526020018673ffffffffffffffffffffffffffffffffffffffff1681526020018581526020018481526020018315158152602001828103825288818151815260200191508051906020019080838360005b838110156102195780820151818401526020810190506101fe565b50505050905090810190601f1680156102465780820380516001836020036101000a031916815260200191505b509850505050505050505060405180910390f35b34801561026657600080fd5b506102b36004803603604081101561027d57600080fd5b8101908080359060200190929190803573ffffffffffffffffffffffffffffffffffffffff169060200190929190505050610ab9565b005b3480156102c157600080fd5b506102ee600480360360208110156102d857600080fd5b8101908080359060200190929190505050610c63565b005b3480156102fc57600080fd5b50610305610ec8565b6040518082815260200191505060405180910390f35b34801561032757600080fd5b50610330610ece565b6040518082815260200191505060405180910390f35b34801561035257600080fd5b5061035b610ed4565b6040518082815260200191505060405180910390f35b34801561037d57600080fd5b50610386610eda565b6040518082815260200191505060405180910390f35b3480156103a857600080fd5b5061048c600480360360608110156103bf57600080fd5b81019080803590602001906401000000008111156103dc57600080fd5b8201836020820111156103ee57600080fd5b8035906020019184600183028401116401000000008311171561041057600080fd5b91908080601f016020809104026020016040519081016040528093929190818152602001838380828437600081840152601f19601f82011690508083019250505050505050919291929080359060200190929190803573ffffffffffffffffffffffffffffffffffffffff169060200190929190505050610ee0565b005b34801561049a57600080fd5b506104dd600480360360208110156104b157600080fd5b81019080803573ffffffffffffffffffffffffffffffffffffffff16906020019092919050505061115b565b60405180821515815260200191505060405180910390f35b34801561050157600080fd5b5061052e6004803603602081101561051857600080fd5b810190808035906020019092919050505061117b565b005b34801561053c57600080fd5b506105896004803603604081101561055357600080fd5b81019080803573ffffffffffffffffffffffffffffffffffffffff1690602001909291908035906020019092919050505061134f565b60405180821515815260200191505060405180910390f35b3480156105ad57600080fd5b506105b661137e565b6040518082815260200191505060405180910390f35b3480156105d857600080fd5b50610625600480360360408110156105ef57600080fd5b8101908080359060200190929190803573ffffffffffffffffffffffffffffffffffffffff169060200190929190505050611384565b005b34801561063357600080fd5b506106766004803603602081101561064a57600080fd5b81019080803573ffffffffffffffffffffffffffffffffffffffff169060200190929190505050611455565b6040518082815260200191505060405180910390f35b34801561069857600080fd5b506106a161146d565b6040518082815260200191505060405180910390f35b6106bf611473565b005b3480156106cd57600080fd5b506106d6611593565b604051808273ffffffffffffffffffffffffffffffffffffffff16815260200191505060405180910390f35b600115156000803373ffffffffffffffffffffffffffffffffffffffff1673ffffffffffffffffffffffffffffffffffffffff16815260200190815260200160002060009054906101000a900460ff161515146107c7576040517f08c379a000000000000000000000000000000000000000000000000000000000815260040180806020018281038252600e8152602001807f6f6e6c7920696e766573746f727300000000000000000000000000000000000081525060200191505060405180910390fd5b600060036000838152602001908152602001600020905060001515600260003373ffffffffffffffffffffffffffffffffffffffff1673ffffffffffffffffffffffffffffffffffffffff168152602001908152602001600020600084815260200190815260200160002060009054906101000a900460ff16151514610898576040517f08c379a000000000000000000000000000000000000000000000000000000000815260040180806020018281038252602a81526020018061172a602a913960400191505060405180910390fd5b806005015442106108f4576040517f08c379a00000000000000000000000000000000000000000000000000000000081526004018080602001828103825260258152602001806117546025913960400191505060405180910390fd5b6001600260003373ffffffffffffffffffffffffffffffffffffffff1673ffffffffffffffffffffffffffffffffffffffff168152602001908152602001600020600084815260200190815260200160002060006101000a81548160ff021916908315150217905550600160003373ffffffffffffffffffffffffffffffffffffffff1673ffffffffffffffffffffffffffffffffffffffff1681526020019081526020016000205481600401600082825401925050819055505050565b6003602052806000526040600020600091509050806000015490806001018054600181600116156101000203166002900480601f016020809104026020016040519081016040528092919081815260200182805460018160011615610100020316600290048015610a645780601f10610a3957610100808354040283529160200191610a64565b820191906000526020600020905b815481529060010190602001808311610a4757829003601f168201915b5050505050908060020154908060030160009054906101000a900473ffffffffffffffffffffffffffffffffffffffff16908060040154908060050154908060060160009054906101000a900460ff16905087565b81600160003373ffffffffffffffffffffffffffffffffffffffff1673ffffffffffffffffffffffffffffffffffffffff168152602001908152602001600020541015610b6e576040517f08c379a00000000000000000000000000000000000000000000000000000000081526004018080602001828103825260118152602001807f6e6f7420656e6f7567682073686172657300000000000000000000000000000081525060200191505060405180910390fd5b81600160003373ffffffffffffffffffffffffffffffffffffffff1673ffffffffffffffffffffffffffffffffffffffff1681526020019081526020016000206000828254039250508190555081600160008373ffffffffffffffffffffffffffffffffffffffff1673ffffffffffffffffffffffffffffffffffffffff1681526020019081526020016000206000828254019250508190555060016000808373ffffffffffffffffffffffffffffffffffffffff1673ffffffffffffffffffffffffffffffffffffffff16815260200190815260200160002060006101000a81548160ff0219169083151502179055505050565b600a60009054906101000a900473ffffffffffffffffffffffffffffffffffffffff1673ffffffffffffffffffffffffffffffffffffffff163373ffffffffffffffffffffffffffffffffffffffff1614610d26576040517f08c379a000000000000000000000000000000000000000000000000000000000815260040180806020018281038252600a8152602001807f6f6e6c792061646d696e0000000000000000000000000000000000000000000081525060200191505060405180910390fd5b60006003600083815260200190815260200160002090508060050154421015610d9a576040517f08c379a00000000000000000000000000000000000000000000000000000000081526004018080602001828103825260278152602001806117d26027913960400191505060405180910390fd5b600015158160060160009054906101000a900460ff16151514610e08576040517f08c379a00000000000000000000000000000000000000000000000000000000081526004018080602001828103825260288152602001806117aa6028913960400191505060405180910390fd5b600954600454606483600401540281610e1d57fe5b041015610e75576040517f08c379a00000000000000000000000000000000000000000000000000000000081526004018080602001828103825260318152602001806117796031913960400191505060405180910390fd5b60018160060160006101000a81548160ff021916908315150217905550610ec481600201548260030160009054906101000a900473ffffffffffffffffffffffffffffffffffffffff166115b9565b5050565b60095481565b60075481565b60045481565b60055481565b600115156000803373ffffffffffffffffffffffffffffffffffffffff1673ffffffffffffffffffffffffffffffffffffffff16815260200190815260200160002060009054906101000a900460ff16151514610fa5576040517f08c379a000000000000000000000000000000000000000000000000000000000815260040180806020018281038252600e8152602001807f6f6e6c7920696e766573746f727300000000000000000000000000000000000081525060200191505060405180910390fd5b81600554101561101d576040517f08c379a000000000000000000000000000000000000000000000000000000000815260040180806020018281038252600e8152602001807f616d6f756e7420746f6f2062696700000000000000000000000000000000000081525060200191505060405180910390fd5b6040518060e0016040528060075481526020018481526020018381526020018273ffffffffffffffffffffffffffffffffffffffff1681526020016000815260200160085442018152602001600015158152506003600060075481526020019081526020016000206000820151816000015560208201518160010190805190602001906110ab92919061168c565b506040820151816002015560608201518160030160006101000a81548173ffffffffffffffffffffffffffffffffffffffff021916908373ffffffffffffffffffffffffffffffffffffffff1602179055506080820151816004015560a0820151816005015560c08201518160060160006101000a81548160ff02191690831515021790555090505081600560008282540392505081905550600760008154809291906001019190505550505050565b60006020528060005260406000206000915054906101000a900460ff1681565b80600160003373ffffffffffffffffffffffffffffffffffffffff1673ffffffffffffffffffffffffffffffffffffffff168152602001908152602001600020541015611230576040517f08c379a00000000000000000000000000000000000000000000000000000000081526004018080602001828103825260118152602001807f6e6f7420656e6f7567682073686172657300000000000000000000000000000081525060200191505060405180910390fd5b8060055410156112a8576040517f08c379a000000000000000000000000000000000000000000000000000000000815260040180806020018281038252601a8152602001807f6e6f7420656e6f75676820617661696c61626c652066756e647300000000000081525060200191505060405180910390fd5b80600160003373ffffffffffffffffffffffffffffffffffffffff1673ffffffffffffffffffffffffffffffffffffffff16815260200190815260200160002060008282540392505081905550806005600082825403925050819055503373ffffffffffffffffffffffffffffffffffffffff166108fc829081150290604051600060405180830381858888f1935050505015801561134b573d6000803e3d6000fd5b5050565b60026020528160005260406000206020528060005260406000206000915091509054906101000a900460ff1681565b60085481565b600a60009054906101000a900473ffffffffffffffffffffffffffffffffffffffff1673ffffffffffffffffffffffffffffffffffffffff163373ffffffffffffffffffffffffffffffffffffffff1614611447576040517f08c379a000000000000000000000000000000000000000000000000000000000815260040180806020018281038252600a8152602001807f6f6e6c792061646d696e0000000000000000000000000000000000000000000081525060200191505060405180910390fd5b61145182826115b9565b5050565b60016020528060005260406000206000915090505481565b60065481565b60065442106114cd576040517f08c379a00000000000000000000000000000000000000000000000000000000081526004018080602001828103825260278152602001806117f96027913960400191505060405180910390fd5b60016000803373ffffffffffffffffffffffffffffffffffffffff1673ffffffffffffffffffffffffffffffffffffffff16815260200190815260200160002060006101000a81548160ff02191690831515021790555034600160003373ffffffffffffffffffffffffffffffffffffffff1673ffffffffffffffffffffffffffffffffffffffff168152602001908152602001600020600082825401925050819055503460046000828254019250508190555034600560008282540192505081905550565b600a60009054906101000a900473ffffffffffffffffffffffffffffffffffffffff1681565b600554821115611631576040517f08c379a00000000000000000000000000000000000000000000000000000000081526004018080602001828103825260198152602001807f6e6f7420656e6f75676820617661696c61626c6546756e64730000000000000081525060200191505060405180910390fd5b816005600082825403925050819055508073ffffffffffffffffffffffffffffffffffffffff166108fc839081150290604051600060405180830381858888f19350505050158015611687573d6000803e3d6000fd5b505050565b828054600181600116156101000203166002900490600052602060002090601f016020900481019282601f106116cd57805160ff19168380011785556116fb565b828001600101855582156116fb579182015b828111156116fa5782518255916020019190600101906116df565b5b509050611708919061170c565b5090565b5b8082111561172557600081600090555060010161170d565b509056fe696e766573746f722063616e206f6e6c7920766f7465206f6e636520666f7220612070726f706f73616c63616e206f6e6c7920766f746520756e74696c2070726f706f73616c20656e64206461746563616e6e6f7420657865637574652070726f706f73616c207769746820766f74657320232062656c6f772071756f72756d63616e6e6f7420657865637574652070726f706f73616c20616c726561647920657865637574656463616e6e6f7420657865637574652070726f706f73616c206265666f726520656e64206461746563616e6e6f7420636f6e7472696275746520616674657220636f6e747269627574696f6e456e64a2646970667358221220d9be5453154bb113e6cad5dd839a052253c8e3a66c696a1cf628567d64fe3d5e64736f6c63430007000033",
  "immutableReferences": {},
  "source": "// SPDX-License-Identifier: MIT\npragma solidity ^0.7.0;\n\n/**\n * DAO contract:\n * 1. Collects investors money (ether)\n * 2. Keep track of investor contributions with shares\n * 3. Allow investors to transfer shares (ex. maybe in future investor wants to sell \n        shares and get out of smart contract)\n * 4. allow investment proposals to be created and voted by investors, after proposal \n        reaches certain majority, it will be carried out\n * 5. execute successful investment proposals (i.e send money), send ether from DAO smart contract\n        to another smart contract that is supposed to represent investment\n */\n\ncontract DAO {\n    struct Proposal {\n        uint id;\n        string name;\n        uint amount; //in ether\n        address payable recipient;\n        uint votes;\n        uint end;\n        bool executed;\n    }\n    mapping(address => bool) public investors;\n    mapping(address => uint) public shares;\n    mapping(address => mapping(uint => bool)) public votes; //check if investor already voted for proposal\n    mapping(uint => Proposal) public proposals;\n    uint public totalShares; //total # of shares created since beginning of DAO contract\n    uint public availableFunds; // total available funds in ether\n    uint public contributionEnd;\n    uint public nextProposalId;\n    uint public voteTime;\n    uint public quorum;\n    address public admin;\n    \n    constructor(uint contributionTime, uint _voteTime, uint _quorum) {\n        require(_quorum > 0 && _quorum < 100, 'quorum must be between 0 and 100');\n        contributionEnd = block.timestamp + contributionTime;\n        voteTime = _voteTime;\n        quorum = _quorum;\n        admin = msg.sender;\n    }\n    \n    function contribute() payable external {\n        require(block.timestamp < contributionEnd, 'cannot contribute after contributionEnd');\n        investors[msg.sender] = true;\n        shares[msg.sender] += msg.value;\n        totalShares += msg.value;\n        availableFunds += msg.value;\n    }\n    \n    //redeemShare and transferShare (implmentation of comment 3)\n    function redeemShare(uint amount) external {\n        require(shares[msg.sender] >= amount, 'not enough shares');\n        require(availableFunds >= amount, 'not enough available funds');\n        shares[msg.sender] -= amount;\n        availableFunds -= amount;\n        msg.sender.transfer(amount);\n    }\n    \n    function transferShare(uint amount, address payable to) external {\n        require(shares[msg.sender] >= amount, 'not enough shares');\n        shares[msg.sender] -= amount;\n        shares[to] += amount;\n        investors[to] = true;\n    }\n    //comment 4 implementation (create and vote)\n    function createProposal(string memory name, uint amount, address payable recipient) external onlyInvestors() {\n        require(availableFunds >= amount, 'amount too big');\n        proposals[nextProposalId] = Proposal(\n            nextProposalId,\n            name,\n            amount,\n            recipient,\n            0,\n            block.timestamp + voteTime,\n            //now + voteTime,\n            false\n        );\n        availableFunds -= amount;\n        nextProposalId++;\n    }\n    //comment 4 implementation (create and vote)\n    function vote(uint proposalId) external onlyInvestors() {\n        Proposal storage proposal = proposals[proposalId];\n        require(votes[msg.sender][proposalId] == false, 'investor can only vote once for a proposal');\n        require(block.timestamp < proposal.end, 'can only vote until proposal end date');\n        votes[msg.sender][proposalId] = true;\n        proposal.votes += shares[msg.sender];\n    }\n    \n    //comment 5 implementation \n    function executeProposal(uint proposalId) external onlyAdmin() {\n        Proposal storage proposal = proposals[proposalId];\n        require(block.timestamp >= proposal.end, 'cannot execute proposal before end date');\n        require(proposal.executed == false, 'cannot execute proposal already executed');\n        require(((proposal.votes * 100) / totalShares) >= quorum, 'cannot execute proposal with votes # below quorum');\n        proposal.executed = true;\n        _transferEther(proposal.amount, proposal.recipient);\n    }\n    \n    function withdrawEther(uint amount, address payable to) external onlyAdmin() {\n        _transferEther(amount, to);\n    }\n    \n    function _transferEther(uint amount, address payable to) internal {\n        require(amount <= availableFunds, 'not enough availableFunds');\n        availableFunds -= amount;\n        to.transfer(amount);\n    }\n    \n    //For ether returns of proposal investments (fallback function)\n    receive() payable external {\n        availableFunds += msg.value;\n    }\n    \n    modifier onlyInvestors() {\n        require(investors[msg.sender] == true, 'only investors');\n        _;\n      }\n      \n    modifier onlyAdmin() {\n        require(msg.sender == admin, 'only admin');\n        _;\n    }\n}",
  "sourcePath": "/Users/00shoe/Projects/Decentralized-Autonomous-Organization/contracts/DAO.sol",
  "compiler": {
    "name": "solc",
    "version": "0.7.0+commit.9e61f92b.Emscripten.clang"
  },
  "schemaVersion": "3.2.4",
  "updatedAt": "2021-03-18T21:04:24.558Z",
  "networkType": "ethereum",
  "devdoc": {
    "kind": "dev",
    "methods": {},
    "version": 1
  },
  "userdoc": {
    "kind": "user",
    "methods": {},
    "notice": "DAO contract: 1. Collects investors money (ether) 2. Keep track of investor contributions with shares 3. Allow investors to transfer shares (ex. maybe in future investor wants to sell  shares and get out of smart contract) 4. allow investment proposals to be created and voted by investors, after proposal  reaches certain majority, it will be carried out 5. execute successful investment proposals (i.e send money), send ether from DAO smart contract to another smart contract that is supposed to represent investment",
    "version": 1
  }
}